{
  "_format": "hh-sol-artifact-1",
  "contractName": "TokenCreationERC1155",
  "sourceName": "contracts/TokenCreationERC1155.sol",
  "abi": [
    {
      "inputs": [],
      "stateMutability": "nonpayable",
      "type": "constructor"
    },
    {
      "anonymous": false,
      "inputs": [
        {
          "indexed": true,
          "internalType": "address",
          "name": "account",
          "type": "address"
        },
        {
          "indexed": true,
          "internalType": "address",
          "name": "operator",
          "type": "address"
        },
        {
          "indexed": false,
          "internalType": "bool",
          "name": "approved",
          "type": "bool"
        }
      ],
      "name": "ApprovalForAll",
      "type": "event"
    },
    {
      "anonymous": false,
      "inputs": [
        {
          "indexed": true,
          "internalType": "address",
          "name": "operator",
          "type": "address"
        },
        {
          "indexed": true,
          "internalType": "address",
          "name": "from",
          "type": "address"
        },
        {
          "indexed": true,
          "internalType": "address",
          "name": "to",
          "type": "address"
        },
        {
          "indexed": false,
          "internalType": "uint256[]",
          "name": "ids",
          "type": "uint256[]"
        },
        {
          "indexed": false,
          "internalType": "uint256[]",
          "name": "values",
          "type": "uint256[]"
        }
      ],
      "name": "TransferBatch",
      "type": "event"
    },
    {
      "anonymous": false,
      "inputs": [
        {
          "indexed": true,
          "internalType": "address",
          "name": "operator",
          "type": "address"
        },
        {
          "indexed": true,
          "internalType": "address",
          "name": "from",
          "type": "address"
        },
        {
          "indexed": true,
          "internalType": "address",
          "name": "to",
          "type": "address"
        },
        {
          "indexed": false,
          "internalType": "uint256",
          "name": "id",
          "type": "uint256"
        },
        {
          "indexed": false,
          "internalType": "uint256",
          "name": "value",
          "type": "uint256"
        }
      ],
      "name": "TransferSingle",
      "type": "event"
    },
    {
      "anonymous": false,
      "inputs": [
        {
          "indexed": false,
          "internalType": "string",
          "name": "value",
          "type": "string"
        },
        {
          "indexed": true,
          "internalType": "uint256",
          "name": "id",
          "type": "uint256"
        }
      ],
      "name": "URI",
      "type": "event"
    },
    {
      "inputs": [
        {
          "internalType": "address",
          "name": "account",
          "type": "address"
        },
        {
          "internalType": "uint256",
          "name": "id",
          "type": "uint256"
        }
      ],
      "name": "balanceOf",
      "outputs": [
        {
          "internalType": "uint256",
          "name": "",
          "type": "uint256"
        }
      ],
      "stateMutability": "view",
      "type": "function"
    },
    {
      "inputs": [
        {
          "internalType": "address[]",
          "name": "accounts",
          "type": "address[]"
        },
        {
          "internalType": "uint256[]",
          "name": "ids",
          "type": "uint256[]"
        }
      ],
      "name": "balanceOfBatch",
      "outputs": [
        {
          "internalType": "uint256[]",
          "name": "",
          "type": "uint256[]"
        }
      ],
      "stateMutability": "view",
      "type": "function"
    },
    {
      "inputs": [],
      "name": "data1",
      "outputs": [
        {
          "internalType": "uint256",
          "name": "",
          "type": "uint256"
        }
      ],
      "stateMutability": "view",
      "type": "function"
    },
    {
      "inputs": [],
      "name": "data2",
      "outputs": [
        {
          "internalType": "uint256",
          "name": "",
          "type": "uint256"
        }
      ],
      "stateMutability": "view",
      "type": "function"
    },
    {
      "inputs": [
        {
          "internalType": "address",
          "name": "account",
          "type": "address"
        },
        {
          "internalType": "address",
          "name": "operator",
          "type": "address"
        }
      ],
      "name": "isApprovedForAll",
      "outputs": [
        {
          "internalType": "bool",
          "name": "",
          "type": "bool"
        }
      ],
      "stateMutability": "view",
      "type": "function"
    },
    {
      "inputs": [
        {
          "internalType": "address",
          "name": "to",
          "type": "address"
        },
        {
          "internalType": "uint256[]",
          "name": "initalSupply",
          "type": "uint256[]"
        }
      ],
      "name": "mintToken",
      "outputs": [],
      "stateMutability": "nonpayable",
      "type": "function"
    },
    {
      "inputs": [
        {
          "internalType": "address",
          "name": "from",
          "type": "address"
        },
        {
          "internalType": "address",
          "name": "to",
          "type": "address"
        },
        {
          "internalType": "uint256[]",
          "name": "ids",
          "type": "uint256[]"
        },
        {
          "internalType": "uint256[]",
          "name": "amounts",
          "type": "uint256[]"
        },
        {
          "internalType": "bytes",
          "name": "data",
          "type": "bytes"
        }
      ],
      "name": "safeBatchTransferFrom",
      "outputs": [],
      "stateMutability": "nonpayable",
      "type": "function"
    },
    {
      "inputs": [
        {
          "internalType": "address",
          "name": "from",
          "type": "address"
        },
        {
          "internalType": "address",
          "name": "to",
          "type": "address"
        },
        {
          "internalType": "uint256",
          "name": "id",
          "type": "uint256"
        },
        {
          "internalType": "uint256",
          "name": "amount",
          "type": "uint256"
        },
        {
          "internalType": "bytes",
          "name": "data",
          "type": "bytes"
        }
      ],
      "name": "safeTransferFrom",
      "outputs": [],
      "stateMutability": "nonpayable",
      "type": "function"
    },
    {
      "inputs": [
        {
          "internalType": "address",
          "name": "operator",
          "type": "address"
        },
        {
          "internalType": "bool",
          "name": "approved",
          "type": "bool"
        }
      ],
      "name": "setApprovalForAll",
      "outputs": [],
      "stateMutability": "nonpayable",
      "type": "function"
    },
    {
      "inputs": [
        {
          "internalType": "bytes4",
          "name": "interfaceId",
          "type": "bytes4"
        }
      ],
      "name": "supportsInterface",
      "outputs": [
        {
          "internalType": "bool",
          "name": "",
          "type": "bool"
        }
      ],
      "stateMutability": "view",
      "type": "function"
    },
    {
      "inputs": [
        {
          "internalType": "uint256",
          "name": "",
          "type": "uint256"
        }
      ],
      "name": "uri",
      "outputs": [
        {
          "internalType": "string",
          "name": "",
          "type": "string"
        }
      ],
      "stateMutability": "view",
      "type": "function"
    }
  ],
  "bytecode": "0x6080604052604051806040016040528060018152602001600281525060039060026200002d9291906200008a565b503480156200003b57600080fd5b506040518060800160405280604d815260200162002ba9604d913962000067816200006e60201b60201c565b50620001f1565b806002908051906020019062000086929190620000dc565b5050565b828054828255906000526020600020908101928215620000c9579160200282015b82811115620000c8578251825591602001919060010190620000ab565b5b509050620000d891906200016d565b5090565b828054620000ea906200018c565b90600052602060002090601f0160209004810192826200010e57600085556200015a565b82601f106200012957805160ff19168380011785556200015a565b828001600101855582156200015a579182015b82811115620001595782518255916020019190600101906200013c565b5b5090506200016991906200016d565b5090565b5b80821115620001885760008160009055506001016200016e565b5090565b60006002820490506001821680620001a557607f821691505b60208210811415620001bc57620001bb620001c2565b5b50919050565b7f4e487b7100000000000000000000000000000000000000000000000000000000600052602260045260246000fd5b6129a880620002016000396000f3fe608060405234801561001057600080fd5b50600436106100a85760003560e01c80634e1273f4116100715780634e1273f4146101755780639ffd85c4146101a5578063a22cb465146101c3578063e3a7fd75146101df578063e985e9c5146101fd578063f242432a1461022d576100a8565b8062fdd58e146100ad57806301ffc9a7146100dd5780630e89341c1461010d5780632e33b3791461013d5780632eb2c2d614610159575b600080fd5b6100c760048036038101906100c29190611b5f565b610249565b6040516100d491906124c0565b60405180910390f35b6100f760048036038101906100f29190611c07565b610312565b6040516101049190612323565b60405180910390f35b61012760048036038101906101229190611c59565b6103f4565b604051610134919061233e565b60405180910390f35b61015760048036038101906101529190611acf565b610488565b005b610173600480360381019061016e9190611981565b6104f7565b005b61018f600480360381019061018a9190611b9b565b610598565b60405161019c91906122ca565b60405180910390f35b6101ad610749565b6040516101ba91906124c0565b60405180910390f35b6101dd60048036038101906101d89190611b23565b61074e565b005b6101e76108cf565b6040516101f491906124c0565b60405180910390f35b61021760048036038101906102129190611945565b6108d4565b6040516102249190612323565b60405180910390f35b61024760048036038101906102429190611a40565b610968565b005b60008073ffffffffffffffffffffffffffffffffffffffff168373ffffffffffffffffffffffffffffffffffffffff1614156102ba576040517f08c379a00000000000000000000000000000000000000000000000000000000081526004016102b1906123a0565b60405180910390fd5b60008083815260200190815260200160002060008473ffffffffffffffffffffffffffffffffffffffff1673ffffffffffffffffffffffffffffffffffffffff16815260200190815260200160002054905092915050565b60007fd9b67a26000000000000000000000000000000000000000000000000000000007bffffffffffffffffffffffffffffffffffffffffffffffffffffffff1916827bffffffffffffffffffffffffffffffffffffffffffffffffffffffff191614806103dd57507f0e89341c000000000000000000000000000000000000000000000000000000007bffffffffffffffffffffffffffffffffffffffffffffffffffffffff1916827bffffffffffffffffffffffffffffffffffffffffffffffffffffffff1916145b806103ed57506103ec82610a09565b5b9050919050565b6060600280546104039061273a565b80601f016020809104026020016040519081016040528092919081815260200182805461042f9061273a565b801561047c5780601f106104515761010080835404028352916020019161047c565b820191906000526020600020905b81548152906001019060200180831161045f57829003601f168201915b50505050509050919050565b6104f38260038054806020026020016040519081016040528092919081815260200182805480156104d857602002820191906000526020600020905b8154815260200190600101908083116104c4575b50505050508360405180602001604052806000815250610a73565b5050565b6104ff610cdd565b73ffffffffffffffffffffffffffffffffffffffff168573ffffffffffffffffffffffffffffffffffffffff16148061054557506105448561053f610cdd565b6108d4565b5b610584576040517f08c379a000000000000000000000000000000000000000000000000000000000815260040161057b90612400565b60405180910390fd5b6105918585858585610ce5565b5050505050565b606081518351146105de576040517f08c379a00000000000000000000000000000000000000000000000000000000081526004016105d590612460565b60405180910390fd5b6000835167ffffffffffffffff811115610621577f4e487b7100000000000000000000000000000000000000000000000000000000600052604160045260246000fd5b60405190808252806020026020018201604052801561064f5781602001602082028036833780820191505090505b50905060005b845181101561073e576106e885828151811061069a577f4e487b7100000000000000000000000000000000000000000000000000000000600052603260045260246000fd5b60200260200101518583815181106106db577f4e487b7100000000000000000000000000000000000000000000000000000000600052603260045260246000fd5b6020026020010151610249565b828281518110610721577f4e487b7100000000000000000000000000000000000000000000000000000000600052603260045260246000fd5b602002602001018181525050806107379061276c565b9050610655565b508091505092915050565b600181565b8173ffffffffffffffffffffffffffffffffffffffff1661076d610cdd565b73ffffffffffffffffffffffffffffffffffffffff1614156107c4576040517f08c379a00000000000000000000000000000000000000000000000000000000081526004016107bb90612440565b60405180910390fd5b80600160006107d1610cdd565b73ffffffffffffffffffffffffffffffffffffffff1673ffffffffffffffffffffffffffffffffffffffff16815260200190815260200160002060008473ffffffffffffffffffffffffffffffffffffffff1673ffffffffffffffffffffffffffffffffffffffff16815260200190815260200160002060006101000a81548160ff0219169083151502179055508173ffffffffffffffffffffffffffffffffffffffff1661087e610cdd565b73ffffffffffffffffffffffffffffffffffffffff167f17307eab39ab6107e8899845ad3d59bd9653f200f220920489ca2b5937696c31836040516108c39190612323565b60405180910390a35050565b600281565b6000600160008473ffffffffffffffffffffffffffffffffffffffff1673ffffffffffffffffffffffffffffffffffffffff16815260200190815260200160002060008373ffffffffffffffffffffffffffffffffffffffff1673ffffffffffffffffffffffffffffffffffffffff16815260200190815260200160002060009054906101000a900460ff16905092915050565b610970610cdd565b73ffffffffffffffffffffffffffffffffffffffff168573ffffffffffffffffffffffffffffffffffffffff1614806109b657506109b5856109b0610cdd565b6108d4565b5b6109f5576040517f08c379a00000000000000000000000000000000000000000000000000000000081526004016109ec906123c0565b60405180910390fd5b610a028585858585611045565b5050505050565b60007f01ffc9a7000000000000000000000000000000000000000000000000000000007bffffffffffffffffffffffffffffffffffffffffffffffffffffffff1916827bffffffffffffffffffffffffffffffffffffffffffffffffffffffff1916149050919050565b600073ffffffffffffffffffffffffffffffffffffffff168473ffffffffffffffffffffffffffffffffffffffff161415610ae3576040517f08c379a0000000000000000000000000000000000000000000000000000000008152600401610ada906124a0565b60405180910390fd5b8151835114610b27576040517f08c379a0000000000000000000000000000000000000000000000000000000008152600401610b1e90612480565b60405180910390fd5b6000610b31610cdd565b9050610b42816000878787876112c7565b60005b8451811015610c4757838181518110610b87577f4e487b7100000000000000000000000000000000000000000000000000000000600052603260045260246000fd5b6020026020010151600080878481518110610bcb577f4e487b7100000000000000000000000000000000000000000000000000000000600052603260045260246000fd5b6020026020010151815260200190815260200160002060008873ffffffffffffffffffffffffffffffffffffffff1673ffffffffffffffffffffffffffffffffffffffff1681526020019081526020016000206000828254610c2d919061262e565b925050819055508080610c3f9061276c565b915050610b45565b508473ffffffffffffffffffffffffffffffffffffffff16600073ffffffffffffffffffffffffffffffffffffffff168273ffffffffffffffffffffffffffffffffffffffff167f4a39dc06d4c0dbc64b70af90fd698a233a518aa5d07e595d983b8c0526c8f7fb8787604051610cbf9291906122ec565b60405180910390a4610cd6816000878787876112cf565b5050505050565b600033905090565b8151835114610d29576040517f08c379a0000000000000000000000000000000000000000000000000000000008152600401610d2090612480565b60405180910390fd5b600073ffffffffffffffffffffffffffffffffffffffff168473ffffffffffffffffffffffffffffffffffffffff161415610d99576040517f08c379a0000000000000000000000000000000000000000000000000000000008152600401610d90906123e0565b60405180910390fd5b6000610da3610cdd565b9050610db38187878787876112c7565b60005b8451811015610fb0576000858281518110610dfa577f4e487b7100000000000000000000000000000000000000000000000000000000600052603260045260246000fd5b602002602001015190506000858381518110610e3f577f4e487b7100000000000000000000000000000000000000000000000000000000600052603260045260246000fd5b60200260200101519050600080600084815260200190815260200160002060008b73ffffffffffffffffffffffffffffffffffffffff1673ffffffffffffffffffffffffffffffffffffffff16815260200190815260200160002054905081811015610ee0576040517f08c379a0000000000000000000000000000000000000000000000000000000008152600401610ed790612420565b60405180910390fd5b81810360008085815260200190815260200160002060008c73ffffffffffffffffffffffffffffffffffffffff1673ffffffffffffffffffffffffffffffffffffffff168152602001908152602001600020819055508160008085815260200190815260200160002060008b73ffffffffffffffffffffffffffffffffffffffff1673ffffffffffffffffffffffffffffffffffffffff1681526020019081526020016000206000828254610f95919061262e565b9250508190555050505080610fa99061276c565b9050610db6565b508473ffffffffffffffffffffffffffffffffffffffff168673ffffffffffffffffffffffffffffffffffffffff168273ffffffffffffffffffffffffffffffffffffffff167f4a39dc06d4c0dbc64b70af90fd698a233a518aa5d07e595d983b8c0526c8f7fb87876040516110279291906122ec565b60405180910390a461103d8187878787876112cf565b505050505050565b600073ffffffffffffffffffffffffffffffffffffffff168473ffffffffffffffffffffffffffffffffffffffff1614156110b5576040517f08c379a00000000000000000000000000000000000000000000000000000000081526004016110ac906123e0565b60405180910390fd5b60006110bf610cdd565b90506110df8187876110d08861149f565b6110d98861149f565b876112c7565b600080600086815260200190815260200160002060008873ffffffffffffffffffffffffffffffffffffffff1673ffffffffffffffffffffffffffffffffffffffff16815260200190815260200160002054905083811015611176576040517f08c379a000000000000000000000000000000000000000000000000000000000815260040161116d90612420565b60405180910390fd5b83810360008087815260200190815260200160002060008973ffffffffffffffffffffffffffffffffffffffff1673ffffffffffffffffffffffffffffffffffffffff168152602001908152602001600020819055508360008087815260200190815260200160002060008873ffffffffffffffffffffffffffffffffffffffff1673ffffffffffffffffffffffffffffffffffffffff168152602001908152602001600020600082825461122b919061262e565b925050819055508573ffffffffffffffffffffffffffffffffffffffff168773ffffffffffffffffffffffffffffffffffffffff168373ffffffffffffffffffffffffffffffffffffffff167fc3d58168c5ae7397731d063d5bbf3d657854427343f4c083240f7aacaa2d0f6288886040516112a89291906124db565b60405180910390a46112be828888888888611565565b50505050505050565b505050505050565b6112ee8473ffffffffffffffffffffffffffffffffffffffff16611735565b15611497578373ffffffffffffffffffffffffffffffffffffffff1663bc197c8187878686866040518663ffffffff1660e01b8152600401611334959493929190612208565b602060405180830381600087803b15801561134e57600080fd5b505af192505050801561137f57506040513d601f19601f8201168201806040525081019061137c9190611c30565b60015b61140e5761138b612860565b8061139657506113d3565b806040517f08c379a00000000000000000000000000000000000000000000000000000000081526004016113ca919061233e565b60405180910390fd5b6040517f08c379a000000000000000000000000000000000000000000000000000000000815260040161140590612360565b60405180910390fd5b63bc197c8160e01b7bffffffffffffffffffffffffffffffffffffffffffffffffffffffff1916817bffffffffffffffffffffffffffffffffffffffffffffffffffffffff191614611495576040517f08c379a000000000000000000000000000000000000000000000000000000000815260040161148c90612380565b60405180910390fd5b505b505050505050565b60606000600167ffffffffffffffff8111156114e4577f4e487b7100000000000000000000000000000000000000000000000000000000600052604160045260246000fd5b6040519080825280602002602001820160405280156115125781602001602082028036833780820191505090505b5090508281600081518110611550577f4e487b7100000000000000000000000000000000000000000000000000000000600052603260045260246000fd5b60200260200101818152505080915050919050565b6115848473ffffffffffffffffffffffffffffffffffffffff16611735565b1561172d578373ffffffffffffffffffffffffffffffffffffffff1663f23a6e6187878686866040518663ffffffff1660e01b81526004016115ca959493929190612270565b602060405180830381600087803b1580156115e457600080fd5b505af192505050801561161557506040513d601f19601f820116820180604052508101906116129190611c30565b60015b6116a457611621612860565b8061162c5750611669565b806040517f08c379a0000000000000000000000000000000000000000000000000000000008152600401611660919061233e565b60405180910390fd5b6040517f08c379a000000000000000000000000000000000000000000000000000000000815260040161169b90612360565b60405180910390fd5b63f23a6e6160e01b7bffffffffffffffffffffffffffffffffffffffffffffffffffffffff1916817bffffffffffffffffffffffffffffffffffffffffffffffffffffffff19161461172b576040517f08c379a000000000000000000000000000000000000000000000000000000000815260040161172290612380565b60405180910390fd5b505b505050505050565b600080823b905060008111915050919050565b600061175b61175684612535565b612504565b9050808382526020820190508285602086028201111561177a57600080fd5b60005b858110156117aa5781611790888261185e565b84526020840193506020830192505060018101905061177d565b5050509392505050565b60006117c76117c284612561565b612504565b905080838252602082019050828560208602820111156117e657600080fd5b60005b8581101561181657816117fc8882611930565b8452602084019350602083019250506001810190506117e9565b5050509392505050565b600061183361182e8461258d565b612504565b90508281526020810184848401111561184b57600080fd5b6118568482856126f8565b509392505050565b60008135905061186d81612916565b92915050565b600082601f83011261188457600080fd5b8135611894848260208601611748565b91505092915050565b600082601f8301126118ae57600080fd5b81356118be8482602086016117b4565b91505092915050565b6000813590506118d68161292d565b92915050565b6000813590506118eb81612944565b92915050565b60008151905061190081612944565b92915050565b600082601f83011261191757600080fd5b8135611927848260208601611820565b91505092915050565b60008135905061193f8161295b565b92915050565b6000806040838503121561195857600080fd5b60006119668582860161185e565b92505060206119778582860161185e565b9150509250929050565b600080600080600060a0868803121561199957600080fd5b60006119a78882890161185e565b95505060206119b88882890161185e565b945050604086013567ffffffffffffffff8111156119d557600080fd5b6119e18882890161189d565b935050606086013567ffffffffffffffff8111156119fe57600080fd5b611a0a8882890161189d565b925050608086013567ffffffffffffffff811115611a2757600080fd5b611a3388828901611906565b9150509295509295909350565b600080600080600060a08688031215611a5857600080fd5b6000611a668882890161185e565b9550506020611a778882890161185e565b9450506040611a8888828901611930565b9350506060611a9988828901611930565b925050608086013567ffffffffffffffff811115611ab657600080fd5b611ac288828901611906565b9150509295509295909350565b60008060408385031215611ae257600080fd5b6000611af08582860161185e565b925050602083013567ffffffffffffffff811115611b0d57600080fd5b611b198582860161189d565b9150509250929050565b60008060408385031215611b3657600080fd5b6000611b448582860161185e565b9250506020611b55858286016118c7565b9150509250929050565b60008060408385031215611b7257600080fd5b6000611b808582860161185e565b9250506020611b9185828601611930565b9150509250929050565b60008060408385031215611bae57600080fd5b600083013567ffffffffffffffff811115611bc857600080fd5b611bd485828601611873565b925050602083013567ffffffffffffffff811115611bf157600080fd5b611bfd8582860161189d565b9150509250929050565b600060208284031215611c1957600080fd5b6000611c27848285016118dc565b91505092915050565b600060208284031215611c4257600080fd5b6000611c50848285016118f1565b91505092915050565b600060208284031215611c6b57600080fd5b6000611c7984828501611930565b91505092915050565b6000611c8e83836121ea565b60208301905092915050565b611ca381612684565b82525050565b6000611cb4826125cd565b611cbe81856125fb565b9350611cc9836125bd565b8060005b83811015611cfa578151611ce18882611c82565b9750611cec836125ee565b925050600181019050611ccd565b5085935050505092915050565b611d1081612696565b82525050565b6000611d21826125d8565b611d2b818561260c565b9350611d3b818560208601612707565b611d4481612842565b840191505092915050565b6000611d5a826125e3565b611d64818561261d565b9350611d74818560208601612707565b611d7d81612842565b840191505092915050565b6000611d9560348361261d565b91507f455243313135353a207472616e7366657220746f206e6f6e204552433131353560008301527f526563656976657220696d706c656d656e7465720000000000000000000000006020830152604082019050919050565b6000611dfb60288361261d565b91507f455243313135353a204552433131353552656365697665722072656a6563746560008301527f6420746f6b656e730000000000000000000000000000000000000000000000006020830152604082019050919050565b6000611e61602b8361261d565b91507f455243313135353a2062616c616e636520717565727920666f7220746865207a60008301527f65726f20616464726573730000000000000000000000000000000000000000006020830152604082019050919050565b6000611ec760298361261d565b91507f455243313135353a2063616c6c6572206973206e6f74206f776e6572206e6f7260008301527f20617070726f76656400000000000000000000000000000000000000000000006020830152604082019050919050565b6000611f2d60258361261d565b91507f455243313135353a207472616e7366657220746f20746865207a65726f20616460008301527f64726573730000000000000000000000000000000000000000000000000000006020830152604082019050919050565b6000611f9360328361261d565b91507f455243313135353a207472616e736665722063616c6c6572206973206e6f742060008301527f6f776e6572206e6f7220617070726f76656400000000000000000000000000006020830152604082019050919050565b6000611ff9602a8361261d565b91507f455243313135353a20696e73756666696369656e742062616c616e636520666f60008301527f72207472616e73666572000000000000000000000000000000000000000000006020830152604082019050919050565b600061205f60298361261d565b91507f455243313135353a2073657474696e6720617070726f76616c2073746174757360008301527f20666f722073656c6600000000000000000000000000000000000000000000006020830152604082019050919050565b60006120c560298361261d565b91507f455243313135353a206163636f756e747320616e6420696473206c656e67746860008301527f206d69736d6174636800000000000000000000000000000000000000000000006020830152604082019050919050565b600061212b60288361261d565b91507f455243313135353a2069647320616e6420616d6f756e7473206c656e6774682060008301527f6d69736d617463680000000000000000000000000000000000000000000000006020830152604082019050919050565b600061219160218361261d565b91507f455243313135353a206d696e7420746f20746865207a65726f2061646472657360008301527f73000000000000000000000000000000000000000000000000000000000000006020830152604082019050919050565b6121f3816126ee565b82525050565b612202816126ee565b82525050565b600060a08201905061221d6000830188611c9a565b61222a6020830187611c9a565b818103604083015261223c8186611ca9565b905081810360608301526122508185611ca9565b905081810360808301526122648184611d16565b90509695505050505050565b600060a0820190506122856000830188611c9a565b6122926020830187611c9a565b61229f60408301866121f9565b6122ac60608301856121f9565b81810360808301526122be8184611d16565b90509695505050505050565b600060208201905081810360008301526122e48184611ca9565b905092915050565b600060408201905081810360008301526123068185611ca9565b9050818103602083015261231a8184611ca9565b90509392505050565b60006020820190506123386000830184611d07565b92915050565b600060208201905081810360008301526123588184611d4f565b905092915050565b6000602082019050818103600083015261237981611d88565b9050919050565b6000602082019050818103600083015261239981611dee565b9050919050565b600060208201905081810360008301526123b981611e54565b9050919050565b600060208201905081810360008301526123d981611eba565b9050919050565b600060208201905081810360008301526123f981611f20565b9050919050565b6000602082019050818103600083015261241981611f86565b9050919050565b6000602082019050818103600083015261243981611fec565b9050919050565b6000602082019050818103600083015261245981612052565b9050919050565b60006020820190508181036000830152612479816120b8565b9050919050565b600060208201905081810360008301526124998161211e565b9050919050565b600060208201905081810360008301526124b981612184565b9050919050565b60006020820190506124d560008301846121f9565b92915050565b60006040820190506124f060008301856121f9565b6124fd60208301846121f9565b9392505050565b6000604051905081810181811067ffffffffffffffff8211171561252b5761252a612813565b5b8060405250919050565b600067ffffffffffffffff8211156125505761254f612813565b5b602082029050602081019050919050565b600067ffffffffffffffff82111561257c5761257b612813565b5b602082029050602081019050919050565b600067ffffffffffffffff8211156125a8576125a7612813565b5b601f19601f8301169050602081019050919050565b6000819050602082019050919050565b600081519050919050565b600081519050919050565b600081519050919050565b6000602082019050919050565b600082825260208201905092915050565b600082825260208201905092915050565b600082825260208201905092915050565b6000612639826126ee565b9150612644836126ee565b9250827fffffffffffffffffffffffffffffffffffffffffffffffffffffffffffffffff03821115612679576126786127b5565b5b828201905092915050565b600061268f826126ce565b9050919050565b60008115159050919050565b60007fffffffff0000000000000000000000000000000000000000000000000000000082169050919050565b600073ffffffffffffffffffffffffffffffffffffffff82169050919050565b6000819050919050565b82818337600083830152505050565b60005b8381101561272557808201518184015260208101905061270a565b83811115612734576000848401525b50505050565b6000600282049050600182168061275257607f821691505b60208210811415612766576127656127e4565b5b50919050565b6000612777826126ee565b91507fffffffffffffffffffffffffffffffffffffffffffffffffffffffffffffffff8214156127aa576127a96127b5565b5b600182019050919050565b7f4e487b7100000000000000000000000000000000000000000000000000000000600052601160045260246000fd5b7f4e487b7100000000000000000000000000000000000000000000000000000000600052602260045260246000fd5b7f4e487b7100000000000000000000000000000000000000000000000000000000600052604160045260246000fd5b6000601f19601f8301169050919050565b60008160e01c9050919050565b600060443d101561287057612913565b60046000803e612881600051612853565b6308c379a081146128925750612913565b60405160043d036004823e80513d602482011167ffffffffffffffff821117156128be57505050612913565b808201805167ffffffffffffffff8111156128dd575050505050612913565b8060208301013d85018111156128f857505050505050612913565b61290182612842565b60208401016040528296505050505050505b90565b61291f81612684565b811461292a57600080fd5b50565b61293681612696565b811461294157600080fd5b50565b61294d816126a2565b811461295857600080fd5b50565b612964816126ee565b811461296f57600080fd5b5056fea2646970667358221220d4b3606c148c1b042d51210019464fa1b0980669e2f17570c8d84d9303fbe1b764736f6c6343000800003368747470733a2f2f697066732e696f2f697066732f516d513451565951625066684c374162506834587833736752577367673472486b6e377561796b6350566b4653412f7b69647d2e6a736f6e",
  "linkReferences": {},
  "deployedLinkReferences": {}
}